:1000000045C0000074C000009BC00000C2C00000DA
:10001000E9C0000050C000004EC000004CC000000D
:100020004AC0000048C0000046C0000044C00000B4
:1000300042C0000040C000003EC000003CC00000C4
:100040003AC0000038C0000036C0000034C00000D4
:1000500032C0000030C000002EC000002CC00000E4
:100060002AC0000028C0000026C0000024C00000F4
:1000700022C0000020C000001EC000001CC0000004
:100080001AC0000018C0000016C0000011241FBED6
:10009000CFEFD0E1DEBFCDBF11E0A0E0B1E0EAE3F9
:1000A000F2E000E00BBF02C007900D92A030B10754
:1000B000D9F702D0C0C0A4CF8FE089BF8AEA80936D
:1000C0006A008FEF88BF90E89FBF8ABB1BBA11BA46
:1000D00012BA78948BB380958BBB2FEF87EA91E6A9
:1000E000215080409040E1F700C00000F3CF1F9204
:1000F0000F920FB60F9211242F933F934F938F932C
:100100009F9320E030E02A3031057CF48BB380955A
:100110008BBB4FEF8FE097E2415080409040E1F77A
:1001200000C000002F5F3F4FEECF18BE9F918F9110
:100130004F913F912F910F900FBE0F901F901895E8
:100140001F920F920FB60F9211242F933F934F934C
:100150008F939F9320E030E0243131057CF48BB302
:1001600080958BBB4FEF8BE49DE1415080409040E8
:10017000E1F700C000002F5F3F4FEECF18BE9F9108
:100180008F914F913F912F910F900FBE0F901F9025
:1001900018951F920F920FB60F9211242F933F9331
:1001A0004F938F939F9320E030E02E3131057CF404
:1001B0008BB380958BBB4FEF87E893E14150804034
:1001C0009040E1F700C000002F5F3F4FEECF18BE18
:1001D0009F918F914F913F912F910F900FBE0F9054
:1001E0001F9018951F920F920FB60F9211242F9304
:1001F0003F934F938F939F9320E030E02832310557
:100200007CF48BB380958BBB4FEF83EC99E041502E
:1002100080409040E1F700C000002F5F3F4FEECFDD
:1002200018BE9F918F914F913F912F910F900FBECC
:0A0230000F901F901895F894FFCF6F
:00000001FF
